:100000000C9462000C948A000C948A000C948A0070
:100010000C948A000C948A000C948A000C948A0038
:100020000C948A000C948A000C948A000C948A0028
:100030000C948A000C948A000C948A000C948A0018
:100040000C9421040C948A000C94EF030C94C903C3
:100050000C948A000C948A000C948A000C948A00F8
:100060000C948A000C948A000000000024002700F1
:100070002A0000000000250028002B0000000000DE
:1000800023002600290004040404040404040202DA
:100090000202020203030303030301020408102007
:1000A0004080010204081020010204081020000012
:1000B0000008000201000003040700000000000027
:1000C0000000650611241FBECFEFD4E0DEBFCDBF18
:1000D00012E0A0E0B1E0E8E7FDE002C005900D927B
:1000E000A433B107D9F722E0A4E3B2E001C01D9226
:1000F000AB3DB207E1F710E0C2E6D0E004C02197C3
:10010000FE010E94B406C136D107C9F70E946B04F4
:100110000C94BA060C940000AF92BF92CF92DF927B
:10012000EF92FF920F931F93CF93DF936C017B01AC
:100130008B01040F151FEB015E01AE18BF08C0173D
:10014000D10759F06991D601ED91FC910190F081B0
:10015000E02DC6010995892B79F7C501DF91CF9173
:100160001F910F91FF90EF90DF90CF90BF90AF90D5
:100170000895FC01538D448D252F30E0842F90E0AD
:10018000821B930B541710F0CF9608950197089592
:10019000FC01918D828D981761F0A28DAE0FBF2F5B
:1001A000B11D5D968C91928D9F5F9F73928F90E0B1
:1001B00008958FEF9FEF0895FC01918D828D981720
:1001C00031F0828DE80FF11D858D90E008958FEF5D
:1001D0009FEF0895FC01918D228D892F90E0805C26
:1001E0009F4F821B91098F73992708958EE392E0A8
:1001F0000E94EA0021E0892B09F420E0822F089573
:1002000080E090E0892B29F00E94F60081110C9487
:1002100000000895FC01A48DA80FB92FB11DA35AA9
:10022000BF4F2C91848D90E001968F739927848F16
:10023000A689B7892C93A089B1898C918370806439
:100240008C93938D848D981306C00288F389E02DDA
:1002500080818F7D80830895EF92FF920F931F938B
:10026000CF93DF93EC0181E0888F9B8D8C8D981369
:100270001AC0E889F989808185FF15C09FB7F89475
:10028000EE89FF896083E889F989808183708064C1
:1002900080839FBF81E090E0DF91CF911F910F910C
:1002A000FF90EF900895F62E0B8D10E00F5F1F4F1B
:1002B0000F731127E02E8C8D8E110CC00FB607FC2A
:1002C000FACFE889F989808185FFF5CFCE010E94B8
:1002D0000A01F1CFEB8DEC0FFD2FF11DE35AFF4F1B
:1002E000F0829FB7F8940B8FEA89FB898081806246
:1002F000CFCFCF93DF93EC01888D8823B9F0AA8903
:10030000BB89E889F9898C9185FD03C0808186FDD0
:100310000DC00FB607FCF7CF8C9185FFF2CF80811F
:1003200085FFEDCFCE010E940A01E9CFDF91CF9189
:100330000895833081F028F4813099F08230A9F05B
:1003400008958730A9F08830C9F08430B1F48091E5
:1003500080008F7D03C0809180008F778093800024
:10036000089584B58F7784BD089584B58F7DFBCFC4
:100370008091B0008F778093B00008958091B00095
:100380008F7DF9CFCF93DF93E1EBF0E08491EDE93E
:10039000F0E0D491E9E8F0E0C491CC23A1F0811120
:1003A0000E949901EC2FF0E0EE0FFF1FE458FF4F81
:1003B000A591B491EC91ED2381E090E009F480E007
:1003C000DF91CF91089580E090E0FACF1F93CF9313
:1003D000DF93282F30E0F901E255FF4F8491F901B6
:1003E000E656FF4FD491F901EA57FF4FC491CC2351
:1003F000A9F0162F81110E949901EC2FF0E0EE0F69
:10040000FF1FEE58FF4FA591B4918FB7F894EC9170
:10041000111108C0D095DE23DC938FBFDF91CF91FF
:100420001F910895DE2BF8CFCF93DF9390E0FC016E
:10043000E656FF4F24918A579F4FFC0184918823F1
:10044000D1F090E0880F991FFC01E859FF4FA5916A
:10045000B491FC01EE58FF4FC591D49161110EC0CB
:100460009FB7F8948C91E22FE0958E238C9328818E
:10047000E223E8839FBFDF91CF9108958FB7F8946F
:10048000EC91E22BEC938FBFF6CF3FB7F8948091BD
:10049000390290913A02A0913B02B0913C0226B5FC
:1004A000A89B05C02F3F19F00196A11DB11D3FBFAC
:1004B000BA2FA92F982F8827BC01CD01620F711D7B
:1004C000811D911D42E0660F771F881F991F4A9575
:1004D000D1F708958F929F92AF92BF92CF92DF9201
:1004E000EF92FF920E9445024B015C0186E4C82E08
:1004F000D12CE12CF12C0E944502681979098A0956
:100500009B09683E734081059105A8F321E0C21A5A
:10051000D108E108F10888EE880E83E0981EA11C3E
:10052000B11CC114D104E104F10429F7FF90EF904C
:10053000DF90CF90BF90AF909F908F9008958F9253
:100540009F92AF92BF92CF92DF92EF92FF920F9362
:100550001F93CF93DF93E82EC62E0E94C201892BF2
:10056000E1F384E0E89E7001112484E0C89E6001FC
:1005700011240AE010E0D0E0C0E0AA24A394B12C3A
:100580004501002E02C0880C991C0A94E2F7C401B0
:100590008E219F2161E0892B09F460E085E00E94B3
:1005A000E6018C209D2061E0892809F460E084E068
:1005B0000E94E601CC0FDD1F0E94C201C82BD92B7F
:1005C00061E086E00E94E60160E086E00E94E601CC
:1005D00001501109A8F6CE019595879595958795B7
:1005E000DF91CF911F910F91FF90EF90DF90CF900F
:1005F000BF90AF909F908F9008951F93CF93DF93FC
:10060000EC01162F6CE480E40E949F026CE2812FC3
:100610000E949F026D2F80E00E949F026C2F80E05D
:10062000DF91CF911F910C949F02FC01019000205B
:10063000E9F73197AF01481B590BBC018EE392E0FB
:100640000C948C008F929F92AF92BF920F931F9346
:10065000CF93DF93CDB7DEB7A1970FB6F894DEBF87
:100660000FBECDBF19A2423008F44AE08E010F5DE3
:100670001F4F842E912CB12CA12CA50194010E9416
:100680009206E62FB901CA01EA30F4F4E05DD80120
:10069000EE938D01232B242B252B79F790E080E01E
:1006A000109719F0CD010E941503A1960FB6F8948A
:1006B000DEBF0FBECDBFDF91CF911F910F91BF90D5
:1006C000AF909F908F900895E95CE1CFCF93DF9337
:1006D0000E941503EC0180E392E00E9415038C0F49
:1006E0009D1FDF91CF9108950C941503CF936CE477
:1006F00084E00E949F0268E680E00E949F026CE610
:1007000080E00E949F02C82F82E191E00E94740362
:100710006C2F70E090E080E040E10E9422036CE4E6
:1007200084E00E949F026AE780E00E949F026EE7D9
:1007300080E00E949F02C82F87E191E00E9474032D
:100740006C2F70E090E080E040E10E9422038091F5
:100750003D028D3029F480E392E0CF910C94150393
:100760006CE484E00E949F026AE680E00E949F029F
:100770006EE680E00E949F02C82F8EE191E00E9409
:1007800074036C2F70E090E080E040E10E9422034F
:10079000E2CF1F920F920FB60F9211242F933F9327
:1007A0004F935F936F937F938F939F93AF93BF9379
:1007B000EF93FF938EE392E00E940A01FF91EF9185
:1007C000BF91AF919F918F917F916F915F914F9169
:1007D0003F912F910F900FBE0F901F9018951F9271
:1007E0000F920FB60F9211242F938F939F93EF9335
:1007F000FF93E0914E02F0914F028081E09154020C
:10080000F091550282FD1BC09081809157028F5F4D
:100810008F7320915802821741F0E0915702F0E067
:10082000E25CFD4F958F80935702FF91EF919F916E
:100830008F912F910F900FBE0F901F901895808170
:10084000F4CF1F920F920FB60F9211242F933F9364
:100850008F939F93AF93BF9380913502909136020F
:10086000A0913702B09138023091340223E0230F77
:100870002D3758F50196A11DB11D209334028093A8
:10088000350290933602A0933702B09338028091DC
:10089000390290913A02A0913B02B0913C0201963C
:1008A000A11DB11D8093390290933A02A0933B029F
:1008B000B0933C02BF91AF919F918F913F912F9147
:1008C0000F900FBE0F901F90189526E8230F0296E9
:1008D000A11DB11DD2CF789484B5826084BD84B54A
:1008E000816084BD85B5826085BD85B5816085BD2B
:1008F00080916E00816080936E00109281008091E3
:10090000810082608093810080918100816080936A
:100910008100809180008160809380008091B1008F
:1009200084608093B1008091B00081608093B000BA
:1009300080917A00846080937A0080917A0082604E
:1009400080937A0080917A00816080937A00809110
:100950007A00806880937A001092C10061E082E0A2
:100960000E94140261E08DE00E94140261E085E0C3
:100970000E94140261E084E00E94140261E086E0BB
:100980000E94140261E083E00E94140261E08DE0A5
:100990000E94E601E0914E02F0914F0282E08083D6
:1009A000E0914A02F0914B021082E0914C02F091EA
:1009B0004D0280E1808310925602E0915202F09144
:1009C000530286E08083E0915002F09151028081D1
:1009D00080618083E0915002F091510280818860B3
:1009E0008083E0915002F091510280818068808381
:1009F000E0915002F091510280818F7D808385E2E9
:100A000091E00E9466030BEE10E053E2E52EF12C1C
:100A10006BEAC62E64E0D62EC0E0D0E08EE392E012
:100A20000E94EA00892B19F404B601FEF7CF8EE389
:100A300092E00E94C8008736910519F004B601FEC5
:100A40001CC184B78D7F84BF61E083E00E941402E3
:100A500060E085E00E94E60160E084E00E94E6013B
:100A600060E083E00E94E60161E08DE00E94E60123
:100A700061E082E00E94E601C8010197F1F760E0C1
:100A80008DE00E94E601C7010197F1F760E083E085
:100A90000E941402C6010197F1F783E791E00E94DA
:100AA00074036091DB0281E0860F8093DB0270E0CB
:100AB00090E080E04AE00E94220380E392E00E94FE
:100AC0001503712C812C912C54016CE488E00E9458
:100AD0009F026CE0872D0E949F0268E680E00E94E2
:100AE0009F026CE680E00E949F02BA2CA92C982CF1
:100AF0008824880E911CA11CB11C739483E0781289
:100B0000E4CF87E0881680E998068EE1A806B10454
:100B100091F48DE080933D028CE791E00E94740394
:100B200040E167E070E98EE190E00E9422038DE8E9
:100B300091E00E9466036CE480E80E949F0264E6F4
:100B400080E00E949F026CE680E00E949F0288EA9B
:100B500091E00E946603912CB12CA12C6CE488E0FA
:100B60000E949F026CE0892D0E949F0268E780E04E
:100B70000E949F026CE780E00E949F02BA2CAA2488
:100B8000A80EB11C81E0981283C084EB91E00E9412
:100B90007403B50190E080E0672F782F892F9927A3
:100BA00040E10E94220386EC91E00E947403BB2482
:100BB000B50190E080E040E10E94220380E392E0F2
:100BC0000E9415038AEC91E00E9474036CE484E0B7
:100BD0000E949F0268E780E00E949F026CE780E02D
:100BE0000E949F02682F70E090E080E040E10E9448
:100BF000220380E392E00E94150381ED91E00E94C0
:100C000074030E94760380913D028D3009F043C049
:100C10006AE68CE694E60E94FD026FEF8CE794E7AB
:100C20000E94FD0289ED91E00E9474030E94760308
:100C300081EE91E00E94740360E086E00E94E6018C
:100C400060E082E00E94E60161E08DE00E94E60142
:100C500084E1B82E60E08DE00E94E6010E946A0205
:100C600061E08DE00E94E6010E946A02BA94B11030
:100C7000F1CF8CE292E00E947403209709F4CECE6B
:100C80000E94F600882309F4C9CE0E940000C6CE57
:100C90009924939463CF98EE980F923040F094ED9E
:100CA000980F923020F08455823008F0BBCF62E676
:100CB0008CE694E60E94FD026FED8CE794E70E94BB
:100CC000FD026FEF8EE696E6ABCFEEE3F2E0138225
:100CD000128288EE93E0A0E0B0E084839583A6833F
:100CE000B78384E091E09183808385EC90E09587E1
:100CF000848784EC90E09787868780EC90E0918BE6
:100D0000808B81EC90E0938B828B82EC90E0958BD2
:100D1000848B86EC90E0978B868B118E128E138ECF
:100D2000148E0895A1E21A2EAA1BBB1BFD010DC053
:100D3000AA1FBB1FEE1FFF1FA217B307E407F5078B
:100D400020F0A21BB30BE40BF50B661F771F881F67
:100D5000991F1A9469F760957095809590959B01FD
:100D6000AC01BD01CF010895EE0FFF1F0590F49176
:080D7000E02D0994F894FFCF77
:100D7800000000002C018C00B9007901EA00C800CD
:100D8800DC004C3D3078002C20483D3078002C2089
:100D9800453D3078000D0A6869207869616F6C619B
:100DA80062612C2041565220486967682D766F6C25
:100DB800746167652053657269616C204675736557
:100DC80020526570726F6772616D6D65722C207349
:100DD800656E642027672720746F207374617274AE
:100DE8000D0A000D0A736571203D20005369676E76
:100DF80061747572652069733A20307800203D204F
:100E0800415474696E7931332F3133562C20415453
:100E180074696E79313341004368697020457261A5
:100E28007365640043616C6962726174696F6E20F6
:100E380062797465733A203078004C6F636B3A209E
:100E48000066757365203A200066697865643A2003
:100E580000506F776572206F6666207365717565DF
:100E68006E63793A207365742053434920746F2068
:100E78002730272C2073657420524553455420741D
:100E88006F202731272C207475726E2056636320DB
:100E9800706F776572206F66660D0A00646F6E6505
:040EA8000D0A00002F
:103800000C94341C0C94511C0C94511C0C94511CA1
:103810000C94511C0C94511C0C94511C0C94511C74
:103820000C94511C0C94511C0C94511C0C94511C64
:103830000C94511C0C94511C0C94511C0C94511C54
:103840000C94511C0C94511C0C94511C0C94511C44
:103850000C94511C0C94511C0C94511C0C94511C34
:103860000C94511C0C94511C11241FBECFEFD4E0BA
:10387000DEBFCDBF11E0A0E0B1E0E4EAFFE302C0AB
:1038800005900D92A230B107D9F712E0A2E0B1E0A5
:1038900001C01D92AD30B107E1F70E94361D0C94B6
:1038A000D01F0C94001C982F9595959595959595FE
:1038B000905D8F708A307CF0282F295A8091C0004B
:1038C00085FFFCCF9093C6008091C00085FFFCCFA0
:1038D0002093C6000895282F205DF0CF982F809167
:1038E000C00085FFFCCF9093C6000895EF92FF9231
:1038F0000F931F93EE24FF2487018091C00087FD62
:1039000017C00894E11CF11C011D111D81E4E8168B
:1039100082E4F8068FE0080780E0180770F3E09172
:103920000401F091050109958091C00087FFE9CF5E
:103930008091C6001F910F91FF90EF9008950E9413
:10394000761C982F8091C00085FFFCCF9093C60015
:1039500091362CF490330CF09053892F089597559D
:10396000892F08951F930E949F1C182F0E949F1C4F
:103970001295107F810F1F910895882351F0982F81
:1039800091508091C00087FFFCCF8091C6009923A1
:10399000B9F708951F93182F0E94761C803249F0C2
:1039A000809103018F5F809303018530C1F01F91E7
:1039B00008958091C00085FFFCCF84E18093C6000C
:1039C0008091C00085FFFCCF1093C6008091C0009D
:1039D00085FFFCCF80E18093C6001F910895E091A0
:1039E0000401F091050109951F9108950E94761C2C
:1039F000803241F0809103018F5F80930301853015
:103A000081F008958091C00085FFFCCF84E1809310
:103A1000C6008091C00085FFFCCF80E18093C60086
:103A20000895E0910401F09105010995089510921F
:103A30000A028823D1F090E040E951E02D9A28EE67
:103A400033E0FA013197F1F721503040D1F72D984A
:103A500028EE33E0FA013197F1F721503040D1F7E9
:103A60009F5F981758F380930A0208953F924F92F0
:103A70005F926F927F928F929F92AF92BF92CF92FE
:103A8000DF92EF92FF920F931F93CF93DF9300008B
:103A900083E38093C4001092C50088E18093C10045
:103AA00086E08093C2005098589A259A81E00E943F
:103AB000171D44E1F42E3EE1E32E24E9D22E96E0D8
:103AC000C92E80E1B82EAA24A39401E4902E16E515
:103AD000812EB2E57B2EA0E26A2EF9E45F2EE3E5AB
:103AE0004E2E70E5372E0E94761C8033B1F1813363
:103AF00009F441C0803409F479C0813409F48CC0E0
:103B0000823471F1853409F47BC0803531F182351E
:103B100021F1813511F1853509F48DC0863509F41F
:103B20009DC0843609F4AEC0843709F41BC18537C3
:103B300009F485C1863709F47AC0809103018F5F4B
:103B400080930301853079F6E0910401F09105013D
:103B500009950E94761C803351F60E94F61CC3CF53
:103B600093E18091C00087FFFCCF8091C60099232C
:103B7000A1F39150F6CF0E94761C8032F1F680912D
:103B8000C00085FFFCCFF092C6008091C00085FF89
:103B9000FCCF9092C6008091C00085FFFCCF809240
:103BA000C6008091C00085FFFCCF7092C600809156
:103BB000C00085FFFCCF6092C6008091C00085FFE9
:103BC000FCCF5092C6008091C00085FFFCCF409290
:103BD000C6008091C00085FFFCCF3092C600809166
:103BE000C00085FFFCCFB092C6007DCF0E94761C3E
:103BF000863808F4B2CF0E94761C0E94F61C73CF60
:103C000094E08091C00087FFFCCF8091C60099238B
:103C100009F4A3CF9150F5CF0E94761C8038D1F0E3
:103C2000813861F1823809F499C0883979F080E0EF
:103C30000E94CA1C58CF0E94761C809306010E94E5
:103C4000761C809307010E94F61C4DCF83E00E94F2
:103C5000CA1C49CF82E00E94CA1C45CF0E94761C34
:103C6000803309F486C192E08091C00087FFFCCFC9
:103C70008091C6009923D9F29150F6CF81E00E943D
:103C8000CA1C31CF0E94761C809309020E94761CC8
:103C90008093080280910C028E7F80930C020E9418
:103CA000761C853429F480910C02816080930C028B
:103CB0008091080290910902892B89F000E010E0C0
:103CC0000E94761CF801E85FFE4F80830F5F1F4F54
:103CD00080910802909109020817190788F30E9441
:103CE000761C803209F029CF80910C0280FFD1C070
:103CF0004091060150910701440F551F5093070151
:103D000040930601A0910802B09109021097C9F0F2
:103D1000E8E0F1E09A01BD016E0F7F1FF999FECF37
:103D200032BD21BD819180BDFA9AF99A2F5F3F4F34
:103D3000E617F70799F74A0F5B1F50930701409367
:103D400006018091C00085FFFCCFF092C6008091F3
:103D5000C00085FFFCCFB092C600C5CE80E10E94B6
:103D6000CA1CC1CE0E94761C809309020E94761C58
:103D7000809308028091060190910701880F991F96
:103D800090930701809306010E94761C853409F404
:103D90007AC080910C028E7F80930C020E94761C68
:103DA000803209F0A0CE8091C00085FFFCCFF09258
:103DB000C600A0910802B09109021097B9F1809154
:103DC0000C02182F1170082F0270E0910601F0917B
:103DD00007019F012F5F3F4FB90140E050E01123E1
:103DE000B1F4002339F494918091C00085FFFCCF99
:103DF0009093C6004F5F5F4FCB010196F9014A17C0
:103E00005B0780F4BC012F5F3F4F112351F3F999F9
:103E1000FECFF2BDE1BDF89A90B58091C00085FF5C
:103E2000FCCFE6CF70930701609306018091C0003C
:103E300085FDD9CE8091C00085FFF8CFD4CE0E94F9
:103E4000761C803209F079CE8091C00085FFFCCFCE
:103E5000F092C6008091C00085FFFCCFE092C600C2
:103E60008091C00085FFFCCFD092C6008091C00039
:103E700085FFFCCFC092C6008091C00085FFFCCFBB
:103E8000B092C60030CE80910C02816080930C020B
:103E900085CF809107018823880F880B8A21809322
:103EA0000B028091060190910701880F991F909352
:103EB0000701809306018091080280FF09C080916C
:103EC00008029091090201969093090280930802DA
:103ED000F894F999FECF1127E0910601F0910701BE
:103EE000C8E0D1E08091080290910902103091F46D
:103EF0000091570001700130D9F303E0009357009F
:103F0000E8950091570001700130D9F301E1009369
:103F10005700E89509901990009157000170013001
:103F2000D9F301E000935700E8951395103498F009
:103F300011270091570001700130D9F305E000937B
:103F40005700E8950091570001700130D9F301E165
:103F500000935700E8953296029709F0C7CF1030CA
:103F600011F00296E5CF11248091C00085FFE9CEC3
:103F7000ECCE0E94761C0E94761C182F0E94761CA4
:103F8000112351F0113021F086E00E94CA1CABCD04
:103F900084E90E94CA1CA7CD8EE10E94CA1CA3CD51
:043FA000F894FFCFC3
:023FA40080009B
:0400000300003800C1
:00000001FF
