:100000000C9462000C948A000C948A000C948A0070
:100010000C948A000C948A000C948A000C948A0038
:100020000C948A000C948A000C948A000C948A0028
:100030000C948A000C948A000C948A000C948A0018
:100040000C94D8030C948A000C94A6030C9480039F
:100050000C948A000C948A000C948A000C948A00F8
:100060000C948A000C948A000000000024002700F1
:100070002A0000000000250028002B0000000000DE
:1000800023002600290004040404040404040202DA
:100090000202020203030303030301020408102007
:1000A0004080010204081020010204081020000012
:1000B0000008000201000003040700000000000027
:1000C0000000F70511241FBECFEFD8E0DEBFCDBF83
:1000D00012E0A0E0B1E0E6EAFCE002C005900D927B
:1000E000AA33B107D9F722E0AAE3B2E001C01D921A
:1000F000A03EB207E1F710E0C2E6D0E004C02197CD
:10010000FE010E944606C136D107C9F70E942204AB
:100110000C9451060C940000CF92DF92EF92FF9264
:100120000F931F93CF93DF936C017A018B01C0E093
:10013000D0E0CE15DF0589F0D8016D918D01D60193
:10014000ED91FC910190F081E02DC6010995892B7C
:1001500011F47E0102C02196ECCFC701DF91CF914F
:100160001F910F91FF90EF90DF90CF900895089529
:1001700080E090E00895FC01538D448D252F30E000
:10018000842F90E0821B930B541710F0CF960895A4
:1001900001970895FC01918D828D981761F0828DF1
:1001A000DF01A80FB11D5D968C91928D9F5F9F73AB
:1001B000928F90E008958FEF9FEF0895FC01918D4D
:1001C000828D981731F0828DE80FF11D858D90E0BA
:1001D00008958FEF9FEF0895FC01918D228D892F57
:1001E00090E0805C9F4F821B91098F73992708953F
:1001F00083E492E00E94EC0021E0892B09F420E0E6
:10020000822F0895FC01848DDF01A80FB11DA35A30
:10021000BF4F2C91848D90E001968F739927848F26
:10022000A689B7892C93A089B1898C9180648C931D
:10023000938D848D981306C00288F389E02D808108
:100240008F7D80830895EF92FF920F931F93CF933A
:10025000DF93EC0181E0888F9B8D8C8D981305C016
:10026000E889F989808185FD24C0F62E0B8D10E088
:100270000F5F1F4F0F731127E02E8C8DE8120CC0FB
:100280000FB607FCFACFE889F989808185FFF5CFA1
:10029000CE010E940201F1CF8B8DFE01E80FF11D0E
:1002A000E35AFF4FF0820B8FEA89FB8980818062DD
:1002B00007C0EE89FF896083E889F98980818064BD
:1002C000808381E090E0DF91CF911F910F91FF90AB
:1002D000EF900895CF93DF93EC01888D8823C9F0C8
:1002E000EA89FB89808185FD05C0A889B9898C913F
:1002F00086FD0FC00FB607FCF5CF808185FFF2CFDA
:10030000A889B9898C9185FFEDCFCE010E940201A9
:10031000E7CFDF91CF91089580E090E0892B29F01D
:100320000E94F80081110C9400000895833081F040
:1003300028F4813099F08230A1F008958730A9F037
:100340008830B9F08430D1F4809180008F7D03C073
:10035000809180008F7780938000089584B58F7797
:1003600002C084B58F7D84BD08958091B0008F77E1
:1003700003C08091B0008F7D8093B0000895CF932B
:10038000DF93E1EBF0E08491EDE9F0E0D491E9E86E
:10039000F0E0C491CC2391F081110E949601EC2FE2
:1003A000F0E0EE0FFF1FE458FF4FA591B491EC91E0
:1003B000ED2381E090E021F480E002C080E090E055
:1003C000DF91CF9108951F93CF93DF93282F30E0D3
:1003D000F901E255FF4F8491F901E656FF4FD491A0
:1003E000F901EA57FF4FC491CC23C9F0162F8111B0
:1003F0000E949601EC2FF0E0EE0FFF1FEE58FF4F2A
:10040000A591B4918FB7F894111105C09C91ED2F6F
:10041000E095E92302C0EC91ED2BEC938FBFDF91C7
:10042000CF911F910895CF93DF9390E0FC01E656A2
:10043000FF4F2491FC01EA57FF4F8491882361F11B
:1004400090E0880F991FFC01E859FF4FC591D491A6
:10045000FC01EE58FF4FA591B491611109C09FB7FF
:10046000F8948881209582238883EC912E230BC0F9
:10047000623061F49FB7F8943881822F809583238E
:100480008883EC912E2B2C939FBF06C08FB7F894D6
:10049000E8812E2B28838FBFDF91CF9108958F9213
:1004A0009F92AF92BF92CF92DF92EF92FF920F9303
:1004B0001F93CF93DF93C82EA62E0E94BF01892BD6
:1004C000E1F384E0C89E6001112484E0A89E5001FD
:1004D00011240AE010E0C0E0D0E088248394912C3D
:1004E0007401002E02C0EE0CFF1C0A94E2F7C70153
:1004F0008C219D2161E0892B09F460E085E00E9458
:10050000E301EA20FB2061E0EF2809F460E084E0E9
:100510000E94E301CC0FDD1F0E94BF01C82BD92B25
:1005200061E086E00E94E30160E086E00E94E30172
:1005300001501109A8F6CE01959587959595879557
:10054000DF91CF911F910F91FF90EF90DF90CF90AF
:10055000BF90AF909F908F9008950F931F93CF936C
:10056000DF931F92CDB7DEB7082F162F6CE480E41F
:1005700099830E944F026CE2812F0E944F02998161
:10058000692F80E00E944F02602F80E00F90DF9182
:10059000CF911F910F910C944F02009769F0FC01CD
:1005A00001900020E9F73197AF01481B590BBC01BE
:1005B00083E492E00C948C0080E090E00895CF9367
:1005C000DF930E94CD02EC0184E891E00E94CD020D
:1005D0008C0F9D1FDF91CF9108958F929F92AF92C4
:1005E000BF920F931F93CF93DF93CDB7DEB7A19741
:1005F0000FB6F894DEBF0FBECDBF19A2423008F48B
:100600004AE08E010F5D1F4F842E912CA12CB12C3E
:10061000A50194010E942406E62FB901CA010150E8
:100620001109EA3014F4E05D01C0E95CD801EC93F3
:10063000232B242B252B61F7C8010E94CD02A19604
:100640000FB6F894DEBF0FBECDBFDF91CF911F91E3
:100650000F91BF90AF909F908F9008950C94CD0212
:10066000CF936CE484E00E944F0268E680E00E9431
:100670004F026CE680E00E944F02C82F82E191E0B9
:100680000E942E036C2F70E080E090E040E10E9419
:10069000ED026CE484E00E944F026AE780E00E9471
:1006A0004F026EE780E00E944F02C82F8DE191E07B
:1006B0000E942E036C2F70E080E090E040E10E94E9
:1006C000ED026CE484E00E944F026AE680E00E9442
:1006D0004F026EE680E00E944F02C82F8AE291E04E
:1006E0000E942E036C2F70E080E090E040E10E94B9
:1006F000ED0284E891E0CF910C94CD020E944C066B
:100700001F920F920FB60F9211242F933F934F9386
:100710005F936F937F938F939F93AF93BF93EF9369
:10072000FF9383E492E00E940201FF91EF91BF9159
:10073000AF919F918F917F916F915F914F913F9179
:100740002F910F900FBE0F901F9018951F920F9230
:100750000FB60F9211242F938F939F93EF93FF93D4
:10076000E0915302F09154028081E0915902F0919E
:100770005A0282FD12C0908180915C028F5F8F735C
:1007800020915D02821751F0E0915C02F0E0ED5B98
:10079000FD4F958F80935C0201C08081FF91EF91A6
:1007A0009F918F912F910F900FBE0F901F901895D2
:1007B0001F920F920FB60F9211242F933F938F9396
:1007C0009F93AF93BF9380913F0290914002A0917D
:1007D0004102B091420230913E0223E0230F2D37B7
:1007E00020F40196A11DB11D05C026E8230F029635
:1007F000A11DB11D20933E0280933F0290934002C1
:10080000A0934102B093420280913A0290913B0240
:10081000A0913C02B0913D020196A11DB11D8093B3
:100820003A0290933B02A0933C02B0933D02BF91E9
:10083000AF919F918F913F912F910F900FBE0F908D
:100840001F901895789484B5826084BD84B58160CA
:1008500084BD85B5826085BD85B5816085BD80918B
:100860006E00816080936E00109281008091810003
:1008700082608093810080918100816080938100FB
:10088000809180008160809380008091B1008460BD
:100890008093B1008091B00081608093B00080911E
:1008A0007A00846080937A0080917A0082608093DD
:1008B0007A0080917A00816080937A0080917A003A
:1008C000806880937A001092C10061E082E00E940B
:1008D000130261E08DE00E94130261E085E00E9456
:1008E000130261E084E00E94130261E086E00E944E
:1008F000130261E083E00E94130261E08DE00E9438
:10090000E301E0915302F091540282E08083E09190
:100910004F02F09150021082E0915102F091520288
:1009200087E6808310925B02E0915702F0915802B3
:1009300086E08083E0915502F091560280818061CB
:100940008083E0915502F091560280818860808317
:10095000E0915502F0915602808180688083E09199
:100960005502F091560280818F7D808387E391E06C
:100970000E94DF020BEE10E053E2E52EF12C6BEA51
:10098000C62E64E0D62E83E492E00E94EC00181696
:1009900019060CF029C183E492E00E94CA0061E0CC
:1009A00083E00E94130260E085E00E94E30160E0C2
:1009B00084E00E94E30160E083E00E94E30161E0E3
:1009C0008DE00E94E30161E082E00E94E301C80142
:1009D0000197F1F760E08DE00E94E301C701019704
:1009E000F1F760E083E00E941302C6010197F1F77E
:1009F000C0E0812C912C54016CE488E00E944F02ED
:100A00006CE08C2F0E944F0268E680E00E944F024B
:100A10006CE680E00E944F02BA2CA92C982C882406
:100A2000880E911CA11CB11CCF5FC33029F787E849
:100A300091E00E942E0340E1C501B4010E94ED0245
:100A400087E0881680E998068EE1A806B10421F4B3
:100A500088E991E00E94DF026CE480E80E944F0286
:100A600064E680E00E944F026CE680E00E944F0244
:100A700083EB91E00E94DF02712CC0E0D0E06CE4D7
:100A800088E00E944F026CE0872D0E944F0268E7C9
:100A900080E00E944F026CE780E00E944F02DC2F52
:100AA000CC27C80FD11D81E0781619F077247394F4
:100AB000E6CF8FEB91E00E942E03CE01A0E0B0E0E4
:100AC000692F7A2F8B2F992740E10E94ED0281ED4B
:100AD00091E00E942E03DD27BE0180E090E040E11E
:100AE0000E94ED0284E891E00E94CD0285ED91E044
:100AF0000E942E036CE484E00E944F0268E780E0CD
:100B00000E944F026CE780E00E944F02682F70E065
:100B100080E090E040E10E94ED0284E891E00E94D4
:100B2000CD028CED91E00E942E030E94300387E0FD
:100B3000881680E998068EE1A806B10449F46AE6B1
:100B40008CE694E60E94AD026FEF8CE794E734C028
:100B50008BE0881681E998068EE1A806B104F9F0C9
:100B600088E0881681E998068EE1A806B104B9F0FC
:100B7000D501C40186509249AE41B1090297A10541
:100B8000B10568F08BE0881A83E9980A8EE1A80A1B
:100B9000B10882E088169104A104B10478F462E6F9
:100BA0008CE694E60E94AD026FED8CE794E70E941C
:100BB000AD026FEF8EE696E60E94AD0285EE91E003
:100BC0000E942E030E9430038EEE91E00E94DF020D
:100BD00060E086E00E94E30160E082E00E94E301C1
:100BE00061E08DE00E94E3010E948C01CCCEE3E441
:100BF000F2E01382128288EE93E0A0E0B0E08483FA
:100C00009583A683B78384E091E09183808385EC0C
:100C100090E09587848784EC90E09787868780ECC6
:100C200090E0918B808B81EC90E0938B828B82ECB7
:100C300090E0958B848B86EC90E0978B868B118E61
:100C4000128E138E148E0895A1E21A2EAA1BBB1BBE
:100C5000FD010DC0AA1FBB1FEE1FFF1FA217B30788
:100C6000E407F50720F0A21BB30BE40BF50B661F9E
:100C7000771F881F991F1A9469F760957095809562
:100C800090959B01AC01BD01CF010895EE0FFF1FB0
:100C90000590F491E02D099481E090E0F8940C9493
:060CA0005106F894FFCF9D
:100CA6000000000023018C00BB006A01EC00CA00B2
:100CB600DE004C46757365203D203078002C2048B8
:100CC60046757365203D203078002C2045467573A7
:100CD60065203D2030780041565220486967682DCE
:100CE600766F6C746167652053657269616C204626
:100CF60075736520526570726F6772616D6D65728E
:100D06002C2073656E6420612063686172207468AC
:100D1600656E2077696C6C207365652072657370EB
:100D26006F6E73650D0A005369676E61747572653F
:100D36002069733A20307800203D20415474696E52
:100D46007931332F3133562C20415474696E793101
:100D560033410043686970204572617365640043DE
:100D6600616C6962726174696F6E20627974657311
:100D76003A203078004C6F636B3A20006265666FEC
:100D860072653A200061667465723A202000506FE1
:100D9600776572206F66662073657175656E637917
:100DA6003A207365742053434920746F20273027F7
:100DB6002C2073657420524553455420746F2027A8
:100DC60031272C207475726E2056636320706F77FE
:0A0DD6006572206F66660D0A0000CA
:107E0000112484B714BE81FFF0D085E080938100F7
:107E100082E08093C00088E18093C10086E0809377
:107E2000C20080E18093C4008EE0C9D0259A86E02C
:107E300020E33CEF91E0309385002093840096BBD3
:107E4000B09BFECF1D9AA8958150A9F7CC24DD24C4
:107E500088248394B5E0AB2EA1E19A2EF3E0BF2EE7
:107E6000A2D0813461F49FD0082FAFD0023811F036
:107E7000013811F484E001C083E08DD089C08234E0
:107E800011F484E103C0853419F485E0A6D080C0E4
:107E9000853579F488D0E82EFF2485D0082F10E0AE
:107EA000102F00270E291F29000F111F8ED06801E7
:107EB0006FC0863521F484E090D080E0DECF843638
:107EC00009F040C070D06FD0082F6DD080E0C81688
:107ED00080E7D80618F4F601B7BEE895C0E0D1E017
:107EE00062D089930C17E1F7F0E0CF16F0E7DF06D8
:107EF00018F0F601B7BEE89568D007B600FCFDCFD4
:107F0000A601A0E0B1E02C9130E011968C91119780
:107F100090E0982F8827822B932B1296FA010C0160
:107F200087BEE89511244E5F5F4FF1E0A038BF0790
:107F300051F7F601A7BEE89507B600FCFDCF97BE46
:107F4000E89526C08437B1F42ED02DD0F82E2BD052
:107F50003CD0F601EF2C8F010F5F1F4F84911BD097
:107F6000EA94F801C1F70894C11CD11CFA94CF0C13
:107F7000D11C0EC0853739F428D08EE10CD085E9AC
:107F80000AD08FE07ACF813511F488E018D01DD067
:107F900080E101D065CF982F8091C00085FFFCCF94
:107FA0009093C60008958091C00087FFFCCF809118
:107FB000C00084FD01C0A8958091C6000895E0E648
:107FC000F0E098E1908380830895EDDF803219F02E
:107FD00088E0F5DFFFCF84E1DECF1F93182FE3DFCA
:107FE0001150E9F7F2DF1F91089580E0E8DFEE27F6
:047FF000FF270994CA
:027FFE00040479
:0400000300007E007B
:00000001FF
